{
  "_format": "hh-sol-artifact-1",
  "contractName": "ManualToken",
  "sourceName": "contracts/ManualToken.sol",
  "abi": [
    {
      "inputs": [
        {
          "internalType": "address",
          "name": "from",
          "type": "address"
        },
        {
          "internalType": "address",
          "name": "to",
          "type": "address"
        },
        {
          "internalType": "uint256",
          "name": "amount",
          "type": "uint256"
        }
      ],
      "name": "_transfer",
      "outputs": [],
      "stateMutability": "nonpayable",
      "type": "function"
    },
    {
      "inputs": [
        {
          "internalType": "address",
          "name": "",
          "type": "address"
        },
        {
          "internalType": "address",
          "name": "",
          "type": "address"
        }
      ],
      "name": "allowance",
      "outputs": [
        {
          "internalType": "uint256",
          "name": "",
          "type": "uint256"
        }
      ],
      "stateMutability": "view",
      "type": "function"
    },
    {
      "inputs": [
        {
          "internalType": "address",
          "name": "",
          "type": "address"
        }
      ],
      "name": "balanceOf",
      "outputs": [
        {
          "internalType": "uint256",
          "name": "",
          "type": "uint256"
        }
      ],
      "stateMutability": "view",
      "type": "function"
    },
    {
      "inputs": [],
      "name": "transferFrom",
      "outputs": [],
      "stateMutability": "nonpayable",
      "type": "function"
    }
  ],
  "bytecode": "0x608060405234801561001057600080fd5b50610471806100206000396000f3fe608060405234801561001057600080fd5b506004361061004c5760003560e01c806330e0789e1461005157806370a082311461006d578063811c34d31461009d578063dd62ed3e146100a7575b600080fd5b61006b60048036038101906100669190610298565b6100d7565b005b610087600480360381019061008291906102eb565b6101c0565b6040516100949190610327565b60405180910390f35b6100a56101d8565b005b6100c160048036038101906100bc9190610342565b6101da565b6040516100ce9190610327565b60405180910390f35b80600160008573ffffffffffffffffffffffffffffffffffffffff1673ffffffffffffffffffffffffffffffffffffffff1681526020019081526020016000205461012291906103b1565b600160008573ffffffffffffffffffffffffffffffffffffffff1673ffffffffffffffffffffffffffffffffffffffff1681526020019081526020016000208190555080600160008473ffffffffffffffffffffffffffffffffffffffff1673ffffffffffffffffffffffffffffffffffffffff16815260200190815260200160002060008282546101b491906103e5565b92505081905550505050565b60016020528060005260406000206000915090505481565b565b6002602052816000526040600020602052806000526040600020600091509150505481565b600080fd5b600073ffffffffffffffffffffffffffffffffffffffff82169050919050565b600061022f82610204565b9050919050565b61023f81610224565b811461024a57600080fd5b50565b60008135905061025c81610236565b92915050565b6000819050919050565b61027581610262565b811461028057600080fd5b50565b6000813590506102928161026c565b92915050565b6000806000606084860312156102b1576102b06101ff565b5b60006102bf8682870161024d565b93505060206102d08682870161024d565b92505060406102e186828701610283565b9150509250925092565b600060208284031215610301576103006101ff565b5b600061030f8482850161024d565b91505092915050565b61032181610262565b82525050565b600060208201905061033c6000830184610318565b92915050565b60008060408385031215610359576103586101ff565b5b60006103678582860161024d565b92505060206103788582860161024d565b9150509250929050565b7f4e487b7100000000000000000000000000000000000000000000000000000000600052601160045260246000fd5b60006103bc82610262565b91506103c783610262565b9250828210156103da576103d9610382565b5b828203905092915050565b60006103f082610262565b91506103fb83610262565b9250827fffffffffffffffffffffffffffffffffffffffffffffffffffffffffffffffff038211156104305761042f610382565b5b82820190509291505056fea264697066735822122043f39c54cffb274fc0d867227d350cbbe33f4314a62ad8d44caf7c1dfac44a3a64736f6c63430008080033",
  "linkReferences": {},
  "deployedLinkReferences": {}
}